{
	"data": {
		"bytecode": {
			"linkReferences": {},
			"object": "60806040526101445f553480156013575f80fd5b5061027f806100215f395ff3fe608060405234801561000f575f80fd5b506004361061004a575f3560e01c8063316db7f21461004e5780634e70b1dc1461007e5780635a9b0b891461009c578063771602f7146100ba575b5f80fd5b61006860048036038101906100639190610158565b6100ea565b6040516100759190610192565b60405180910390f35b6100866100f9565b6040516100939190610192565b60405180910390f35b6100a46100fe565b6040516100b19190610192565b60405180910390f35b6100d460048036038101906100cf91906101ab565b610106565b6040516100e19190610192565b60405180910390f35b5f815f81905550819050919050565b5f5481565b5f8054905090565b5f81836101139190610216565b9050805f8190555092915050565b5f80fd5b5f819050919050565b61013781610125565b8114610141575f80fd5b50565b5f813590506101528161012e565b92915050565b5f6020828403121561016d5761016c610121565b5b5f61017a84828501610144565b91505092915050565b61018c81610125565b82525050565b5f6020820190506101a55f830184610183565b92915050565b5f80604083850312156101c1576101c0610121565b5b5f6101ce85828601610144565b92505060206101df85828601610144565b9150509250929050565b7f4e487b71000000000000000000000000000000000000000000000000000000005f52601160045260245ffd5b5f61022082610125565b915061022b83610125565b9250828201905080821115610243576102426101e9565b5b9291505056fea26469706673582212205079daec95821d8d406176d7626150e626f63ad99940d91069cb44520885959964736f6c63430008190033",
			"opcodes": "PUSH1 0x80 PUSH1 0x40 MSTORE PUSH2 0x144 PUSH0 SSTORE CALLVALUE DUP1 ISZERO PUSH1 0x13 JUMPI PUSH0 DUP1 REVERT JUMPDEST POP PUSH2 0x27F DUP1 PUSH2 0x21 PUSH0 CODECOPY PUSH0 RETURN INVALID PUSH1 0x80 PUSH1 0x40 MSTORE CALLVALUE DUP1 ISZERO PUSH2 0xF JUMPI PUSH0 DUP1 REVERT JUMPDEST POP PUSH1 0x4 CALLDATASIZE LT PUSH2 0x4A JUMPI PUSH0 CALLDATALOAD PUSH1 0xE0 SHR DUP1 PUSH4 0x316DB7F2 EQ PUSH2 0x4E JUMPI DUP1 PUSH4 0x4E70B1DC EQ PUSH2 0x7E JUMPI DUP1 PUSH4 0x5A9B0B89 EQ PUSH2 0x9C JUMPI DUP1 PUSH4 0x771602F7 EQ PUSH2 0xBA JUMPI JUMPDEST PUSH0 DUP1 REVERT JUMPDEST PUSH2 0x68 PUSH1 0x4 DUP1 CALLDATASIZE SUB DUP2 ADD SWAP1 PUSH2 0x63 SWAP2 SWAP1 PUSH2 0x158 JUMP JUMPDEST PUSH2 0xEA JUMP JUMPDEST PUSH1 0x40 MLOAD PUSH2 0x75 SWAP2 SWAP1 PUSH2 0x192 JUMP JUMPDEST PUSH1 0x40 MLOAD DUP1 SWAP2 SUB SWAP1 RETURN JUMPDEST PUSH2 0x86 PUSH2 0xF9 JUMP JUMPDEST PUSH1 0x40 MLOAD PUSH2 0x93 SWAP2 SWAP1 PUSH2 0x192 JUMP JUMPDEST PUSH1 0x40 MLOAD DUP1 SWAP2 SUB SWAP1 RETURN JUMPDEST PUSH2 0xA4 PUSH2 0xFE JUMP JUMPDEST PUSH1 0x40 MLOAD PUSH2 0xB1 SWAP2 SWAP1 PUSH2 0x192 JUMP JUMPDEST PUSH1 0x40 MLOAD DUP1 SWAP2 SUB SWAP1 RETURN JUMPDEST PUSH2 0xD4 PUSH1 0x4 DUP1 CALLDATASIZE SUB DUP2 ADD SWAP1 PUSH2 0xCF SWAP2 SWAP1 PUSH2 0x1AB JUMP JUMPDEST PUSH2 0x106 JUMP JUMPDEST PUSH1 0x40 MLOAD PUSH2 0xE1 SWAP2 SWAP1 PUSH2 0x192 JUMP JUMPDEST PUSH1 0x40 MLOAD DUP1 SWAP2 SUB SWAP1 RETURN JUMPDEST PUSH0 DUP2 PUSH0 DUP2 SWAP1 SSTORE POP DUP2 SWAP1 POP SWAP2 SWAP1 POP JUMP JUMPDEST PUSH0 SLOAD DUP2 JUMP JUMPDEST PUSH0 DUP1 SLOAD SWAP1 POP SWAP1 JUMP JUMPDEST PUSH0 DUP2 DUP4 PUSH2 0x113 SWAP2 SWAP1 PUSH2 0x216 JUMP JUMPDEST SWAP1 POP DUP1 PUSH0 DUP2 SWAP1 SSTORE POP SWAP3 SWAP2 POP POP JUMP JUMPDEST PUSH0 DUP1 REVERT JUMPDEST PUSH0 DUP2 SWAP1 POP SWAP2 SWAP1 POP JUMP JUMPDEST PUSH2 0x137 DUP2 PUSH2 0x125 JUMP JUMPDEST DUP2 EQ PUSH2 0x141 JUMPI PUSH0 DUP1 REVERT JUMPDEST POP JUMP JUMPDEST PUSH0 DUP2 CALLDATALOAD SWAP1 POP PUSH2 0x152 DUP2 PUSH2 0x12E JUMP JUMPDEST SWAP3 SWAP2 POP POP JUMP JUMPDEST PUSH0 PUSH1 0x20 DUP3 DUP5 SUB SLT ISZERO PUSH2 0x16D JUMPI PUSH2 0x16C PUSH2 0x121 JUMP JUMPDEST JUMPDEST PUSH0 PUSH2 0x17A DUP5 DUP3 DUP6 ADD PUSH2 0x144 JUMP JUMPDEST SWAP2 POP POP SWAP3 SWAP2 POP POP JUMP JUMPDEST PUSH2 0x18C DUP2 PUSH2 0x125 JUMP JUMPDEST DUP3 MSTORE POP POP JUMP JUMPDEST PUSH0 PUSH1 0x20 DUP3 ADD SWAP1 POP PUSH2 0x1A5 PUSH0 DUP4 ADD DUP5 PUSH2 0x183 JUMP JUMPDEST SWAP3 SWAP2 POP POP JUMP JUMPDEST PUSH0 DUP1 PUSH1 0x40 DUP4 DUP6 SUB SLT ISZERO PUSH2 0x1C1 JUMPI PUSH2 0x1C0 PUSH2 0x121 JUMP JUMPDEST JUMPDEST PUSH0 PUSH2 0x1CE DUP6 DUP3 DUP7 ADD PUSH2 0x144 JUMP JUMPDEST SWAP3 POP POP PUSH1 0x20 PUSH2 0x1DF DUP6 DUP3 DUP7 ADD PUSH2 0x144 JUMP JUMPDEST SWAP2 POP POP SWAP3 POP SWAP3 SWAP1 POP JUMP JUMPDEST PUSH32 0x4E487B7100000000000000000000000000000000000000000000000000000000 PUSH0 MSTORE PUSH1 0x11 PUSH1 0x4 MSTORE PUSH1 0x24 PUSH0 REVERT JUMPDEST PUSH0 PUSH2 0x220 DUP3 PUSH2 0x125 JUMP JUMPDEST SWAP2 POP PUSH2 0x22B DUP4 PUSH2 0x125 JUMP JUMPDEST SWAP3 POP DUP3 DUP3 ADD SWAP1 POP DUP1 DUP3 GT ISZERO PUSH2 0x243 JUMPI PUSH2 0x242 PUSH2 0x1E9 JUMP JUMPDEST JUMPDEST SWAP3 SWAP2 POP POP JUMP INVALID LOG2 PUSH5 0x6970667358 0x22 SLT KECCAK256 POP PUSH26 0xDAEC95821D8D406176D7626150E626F63AD99940D91069CB4452 ADDMOD DUP6 SWAP6 SWAP10 PUSH5 0x736F6C6343 STOP ADDMOD NOT STOP CALLER "
		},
		"gasEstimates": {
			"creation": {
				"codeDepositCost": "127800",
				"executionCost": "22274",
				"totalCost": "150074"
			},
			"external": {
				"add(uint256,uint256)": "infinite",
				"getInfo()": "2454",
				"num()": "2424",
				"updateInfo(uint256)": "infinite"
			}
		},
		"methodIdentifiers": {
			"add(uint256,uint256)": "771602f7",
			"getInfo()": "5a9b0b89",
			"num()": "4e70b1dc",
			"updateInfo(uint256)": "316db7f2"
		}
	},
	"abi": [
		{
			"inputs": [
				{
					"internalType": "uint256",
					"name": "a",
					"type": "uint256"
				},
				{
					"internalType": "uint256",
					"name": "b",
					"type": "uint256"
				}
			],
			"name": "add",
			"outputs": [
				{
					"internalType": "uint256",
					"name": "sum",
					"type": "uint256"
				}
			],
			"stateMutability": "nonpayable",
			"type": "function"
		},
		{
			"inputs": [],
			"name": "getInfo",
			"outputs": [
				{
					"internalType": "uint256",
					"name": "",
					"type": "uint256"
				}
			],
			"stateMutability": "view",
			"type": "function"
		},
		{
			"inputs": [],
			"name": "num",
			"outputs": [
				{
					"internalType": "uint256",
					"name": "",
					"type": "uint256"
				}
			],
			"stateMutability": "view",
			"type": "function"
		},
		{
			"inputs": [
				{
					"internalType": "uint256",
					"name": "newName",
					"type": "uint256"
				}
			],
			"name": "updateInfo",
			"outputs": [
				{
					"internalType": "uint256",
					"name": "",
					"type": "uint256"
				}
			],
			"stateMutability": "nonpayable",
			"type": "function"
		}
	]
}