{
	"data": {
		"bytecode": {
			"linkReferences": {},
			"object": "60806040526040518060400160405280600881526020017f48657920477265670000000000000000000000000000000000000000000000008152505f90816100479190610391565b5061091e6001557fffffffffffffffffffffffffffffffffffffffffffffffffffffffffffffffd56002556040518060400160405280601081526020017f4865792044656661756c74204279746500000000000000000000000000000000815250600390816100b691906104b8565b506040518060200160405280601760ff1681525060049060016100da9291906100ec565b503480156100e6575f80fd5b50610587565b828054828255905f5260205f2090810192821561012b579160200282015b8281111561012a578251829060ff1690559160200191906001019061010a565b5b509050610138919061013c565b5090565b5b80821115610153575f815f90555060010161013d565b5090565b5f81519050919050565b7f4e487b71000000000000000000000000000000000000000000000000000000005f52604160045260245ffd5b7f4e487b71000000000000000000000000000000000000000000000000000000005f52602260045260245ffd5b5f60028204905060018216806101d257607f821691505b6020821081036101e5576101e461018e565b5b50919050565b5f819050815f5260205f209050919050565b5f6020601f8301049050919050565b5f82821b905092915050565b5f600883026102477fffffffffffffffffffffffffffffffffffffffffffffffffffffffffffffffff8261020c565b610251868361020c565b95508019841693508086168417925050509392505050565b5f819050919050565b5f819050919050565b5f61029561029061028b84610269565b610272565b610269565b9050919050565b5f819050919050565b6102ae8361027b565b6102c26102ba8261029c565b848454610218565b825550505050565b5f90565b6102d66102ca565b6102e18184846102a5565b505050565b5b81811015610304576102f95f826102ce565b6001810190506102e7565b5050565b601f8211156103495761031a816101eb565b610323846101fd565b81016020851015610332578190505b61034661033e856101fd565b8301826102e6565b50505b505050565b5f82821c905092915050565b5f6103695f198460080261034e565b1980831691505092915050565b5f610381838361035a565b9150826002028217905092915050565b61039a82610157565b67ffffffffffffffff8111156103b3576103b2610161565b5b6103bd82546101bb565b6103c8828285610308565b5f60209050601f8311600181146103f9575f84156103e7578287015190505b6103f18582610376565b865550610458565b601f198416610407866101eb565b5f5b8281101561042e57848901518255600182019150602085019450602081019050610409565b8683101561044b5784890151610447601f89168261035a565b8355505b6001600288020188555050505b505050505050565b5f819050815f5260205f209050919050565b601f8211156104b35761048481610460565b61048d846101fd565b8101602085101561049c578190505b6104b06104a8856101fd565b8301826102e6565b50505b505050565b6104c182610157565b67ffffffffffffffff8111156104da576104d9610161565b5b6104e482546101bb565b6104ef828285610472565b5f60209050601f831160018114610520575f841561050e578287015190505b6105188582610376565b86555061057f565b601f19841661052e86610460565b5f5b8281101561055557848901518255600182019150602085019450602081019050610530565b86831015610572578489015161056e601f89168261035a565b8355505b6001600288020188555050505b505050505050565b6108d4806105945f395ff3fe608060405234801561000f575f80fd5b5060043610610060575f3560e01c806307ca2442146100645780630c8ae01f146100945780634ee5c2ee146100b25780635abe622b146100ce578063de4b3a73146100ec578063e96b824a1461010a575b5f80fd5b61007e600480360381019061007991906102c9565b610128565b60405161008b9190610303565b60405180910390f35b61009c610148565b6040516100a99190610303565b60405180910390f35b6100cc60048036038101906100c79190610458565b61014e565b005b6100d6610168565b6040516100e391906104ca565b60405180910390f35b6100f461016e565b6040516101019190610543565b60405180910390f35b6101126101f9565b60405161011f91906105b5565b60405180910390f35b60048181548110610137575f80fd5b905f5260205f20015f915090505481565b60015481565b815f908161015c91906107cf565b50806001819055505050565b60025481565b5f805461017a90610602565b80601f01602080910402602001604051908101604052809291908181526020018280546101a690610602565b80156101f15780601f106101c8576101008083540402835291602001916101f1565b820191905f5260205f20905b8154815290600101906020018083116101d457829003601f168201915b505050505081565b6003805461020690610602565b80601f016020809104026020016040519081016040528092919081815260200182805461023290610602565b801561027d5780601f106102545761010080835404028352916020019161027d565b820191905f5260205f20905b81548152906001019060200180831161026057829003601f168201915b505050505081565b5f604051905090565b5f80fd5b5f80fd5b5f819050919050565b6102a881610296565b81146102b2575f80fd5b50565b5f813590506102c38161029f565b92915050565b5f602082840312156102de576102dd61028e565b5b5f6102eb848285016102b5565b91505092915050565b6102fd81610296565b82525050565b5f6020820190506103165f8301846102f4565b92915050565b5f80fd5b5f80fd5b5f601f19601f8301169050919050565b7f4e487b71000000000000000000000000000000000000000000000000000000005f52604160045260245ffd5b61036a82610324565b810181811067ffffffffffffffff8211171561038957610388610334565b5b80604052505050565b5f61039b610285565b90506103a78282610361565b919050565b5f67ffffffffffffffff8211156103c6576103c5610334565b5b6103cf82610324565b9050602081019050919050565b828183375f83830152505050565b5f6103fc6103f7846103ac565b610392565b90508281526020810184848401111561041857610417610320565b5b6104238482856103dc565b509392505050565b5f82601f83011261043f5761043e61031c565b5b813561044f8482602086016103ea565b91505092915050565b5f806040838503121561046e5761046d61028e565b5b5f83013567ffffffffffffffff81111561048b5761048a610292565b5b6104978582860161042b565b92505060206104a8858286016102b5565b9150509250929050565b5f819050919050565b6104c4816104b2565b82525050565b5f6020820190506104dd5f8301846104bb565b92915050565b5f81519050919050565b5f82825260208201905092915050565b8281835e5f83830152505050565b5f610515826104e3565b61051f81856104ed565b935061052f8185602086016104fd565b61053881610324565b840191505092915050565b5f6020820190508181035f83015261055b818461050b565b905092915050565b5f81519050919050565b5f82825260208201905092915050565b5f61058782610563565b610591818561056d565b93506105a18185602086016104fd565b6105aa81610324565b840191505092915050565b5f6020820190508181035f8301526105cd818461057d565b905092915050565b7f4e487b71000000000000000000000000000000000000000000000000000000005f52602260045260245ffd5b5f600282049050600182168061061957607f821691505b60208210810361062c5761062b6105d5565b5b50919050565b5f819050815f5260205f209050919050565b5f6020601f8301049050919050565b5f82821b905092915050565b5f6008830261068e7fffffffffffffffffffffffffffffffffffffffffffffffffffffffffffffffff82610653565b6106988683610653565b95508019841693508086168417925050509392505050565b5f819050919050565b5f6106d36106ce6106c984610296565b6106b0565b610296565b9050919050565b5f819050919050565b6106ec836106b9565b6107006106f8826106da565b84845461065f565b825550505050565b5f90565b610714610708565b61071f8184846106e3565b505050565b5b81811015610742576107375f8261070c565b600181019050610725565b5050565b601f8211156107875761075881610632565b61076184610644565b81016020851015610770578190505b61078461077c85610644565b830182610724565b50505b505050565b5f82821c905092915050565b5f6107a75f198460080261078c565b1980831691505092915050565b5f6107bf8383610798565b9150826002028217905092915050565b6107d8826104e3565b67ffffffffffffffff8111156107f1576107f0610334565b5b6107fb8254610602565b610806828285610746565b5f60209050601f831160018114610837575f8415610825578287015190505b61082f85826107b4565b865550610896565b601f19841661084586610632565b5f5b8281101561086c57848901518255600182019150602085019450602081019050610847565b868310156108895784890151610885601f891682610798565b8355505b6001600288020188555050505b50505050505056fea2646970667358221220023aad927ea9360dd3a2f0f0b7b5f24d665d41fa55d84b4b4631415f8a6063a364736f6c63430008190033",
			"opcodes": "PUSH1 0x80 PUSH1 0x40 MSTORE PUSH1 0x40 MLOAD DUP1 PUSH1 0x40 ADD PUSH1 0x40 MSTORE DUP1 PUSH1 0x8 DUP2 MSTORE PUSH1 0x20 ADD PUSH32 0x4865792047726567000000000000000000000000000000000000000000000000 DUP2 MSTORE POP PUSH0 SWAP1 DUP2 PUSH2 0x47 SWAP2 SWAP1 PUSH2 0x391 JUMP JUMPDEST POP PUSH2 0x91E PUSH1 0x1 SSTORE PUSH32 0xFFFFFFFFFFFFFFFFFFFFFFFFFFFFFFFFFFFFFFFFFFFFFFFFFFFFFFFFFFFFFFD5 PUSH1 0x2 SSTORE PUSH1 0x40 MLOAD DUP1 PUSH1 0x40 ADD PUSH1 0x40 MSTORE DUP1 PUSH1 0x10 DUP2 MSTORE PUSH1 0x20 ADD PUSH32 0x4865792044656661756C74204279746500000000000000000000000000000000 DUP2 MSTORE POP PUSH1 0x3 SWAP1 DUP2 PUSH2 0xB6 SWAP2 SWAP1 PUSH2 0x4B8 JUMP JUMPDEST POP PUSH1 0x40 MLOAD DUP1 PUSH1 0x20 ADD PUSH1 0x40 MSTORE DUP1 PUSH1 0x17 PUSH1 0xFF AND DUP2 MSTORE POP PUSH1 0x4 SWAP1 PUSH1 0x1 PUSH2 0xDA SWAP3 SWAP2 SWAP1 PUSH2 0xEC JUMP JUMPDEST POP CALLVALUE DUP1 ISZERO PUSH2 0xE6 JUMPI PUSH0 DUP1 REVERT JUMPDEST POP PUSH2 0x587 JUMP JUMPDEST DUP3 DUP1 SLOAD DUP3 DUP3 SSTORE SWAP1 PUSH0 MSTORE PUSH1 0x20 PUSH0 KECCAK256 SWAP1 DUP2 ADD SWAP3 DUP3 ISZERO PUSH2 0x12B JUMPI SWAP2 PUSH1 0x20 MUL DUP3 ADD JUMPDEST DUP3 DUP2 GT ISZERO PUSH2 0x12A JUMPI DUP3 MLOAD DUP3 SWAP1 PUSH1 0xFF AND SWAP1 SSTORE SWAP2 PUSH1 0x20 ADD SWAP2 SWAP1 PUSH1 0x1 ADD SWAP1 PUSH2 0x10A JUMP JUMPDEST JUMPDEST POP SWAP1 POP PUSH2 0x138 SWAP2 SWAP1 PUSH2 0x13C JUMP JUMPDEST POP SWAP1 JUMP JUMPDEST JUMPDEST DUP1 DUP3 GT ISZERO PUSH2 0x153 JUMPI PUSH0 DUP2 PUSH0 SWAP1 SSTORE POP PUSH1 0x1 ADD PUSH2 0x13D JUMP JUMPDEST POP SWAP1 JUMP JUMPDEST PUSH0 DUP2 MLOAD SWAP1 POP SWAP2 SWAP1 POP JUMP JUMPDEST PUSH32 0x4E487B7100000000000000000000000000000000000000000000000000000000 PUSH0 MSTORE PUSH1 0x41 PUSH1 0x4 MSTORE PUSH1 0x24 PUSH0 REVERT JUMPDEST PUSH32 0x4E487B7100000000000000000000000000000000000000000000000000000000 PUSH0 MSTORE PUSH1 0x22 PUSH1 0x4 MSTORE PUSH1 0x24 PUSH0 REVERT JUMPDEST PUSH0 PUSH1 0x2 DUP3 DIV SWAP1 POP PUSH1 0x1 DUP3 AND DUP1 PUSH2 0x1D2 JUMPI PUSH1 0x7F DUP3 AND SWAP2 POP JUMPDEST PUSH1 0x20 DUP3 LT DUP2 SUB PUSH2 0x1E5 JUMPI PUSH2 0x1E4 PUSH2 0x18E JUMP JUMPDEST JUMPDEST POP SWAP2 SWAP1 POP JUMP JUMPDEST PUSH0 DUP2 SWAP1 POP DUP2 PUSH0 MSTORE PUSH1 0x20 PUSH0 KECCAK256 SWAP1 POP SWAP2 SWAP1 POP JUMP JUMPDEST PUSH0 PUSH1 0x20 PUSH1 0x1F DUP4 ADD DIV SWAP1 POP SWAP2 SWAP1 POP JUMP JUMPDEST PUSH0 DUP3 DUP3 SHL SWAP1 POP SWAP3 SWAP2 POP POP JUMP JUMPDEST PUSH0 PUSH1 0x8 DUP4 MUL PUSH2 0x247 PUSH32 0xFFFFFFFFFFFFFFFFFFFFFFFFFFFFFFFFFFFFFFFFFFFFFFFFFFFFFFFFFFFFFFFF DUP3 PUSH2 0x20C JUMP JUMPDEST PUSH2 0x251 DUP7 DUP4 PUSH2 0x20C JUMP JUMPDEST SWAP6 POP DUP1 NOT DUP5 AND SWAP4 POP DUP1 DUP7 AND DUP5 OR SWAP3 POP POP POP SWAP4 SWAP3 POP POP POP JUMP JUMPDEST PUSH0 DUP2 SWAP1 POP SWAP2 SWAP1 POP JUMP JUMPDEST PUSH0 DUP2 SWAP1 POP SWAP2 SWAP1 POP JUMP JUMPDEST PUSH0 PUSH2 0x295 PUSH2 0x290 PUSH2 0x28B DUP5 PUSH2 0x269 JUMP JUMPDEST PUSH2 0x272 JUMP JUMPDEST PUSH2 0x269 JUMP JUMPDEST SWAP1 POP SWAP2 SWAP1 POP JUMP JUMPDEST PUSH0 DUP2 SWAP1 POP SWAP2 SWAP1 POP JUMP JUMPDEST PUSH2 0x2AE DUP4 PUSH2 0x27B JUMP JUMPDEST PUSH2 0x2C2 PUSH2 0x2BA DUP3 PUSH2 0x29C JUMP JUMPDEST DUP5 DUP5 SLOAD PUSH2 0x218 JUMP JUMPDEST DUP3 SSTORE POP POP POP POP JUMP JUMPDEST PUSH0 SWAP1 JUMP JUMPDEST PUSH2 0x2D6 PUSH2 0x2CA JUMP JUMPDEST PUSH2 0x2E1 DUP2 DUP5 DUP5 PUSH2 0x2A5 JUMP JUMPDEST POP POP POP JUMP JUMPDEST JUMPDEST DUP2 DUP2 LT ISZERO PUSH2 0x304 JUMPI PUSH2 0x2F9 PUSH0 DUP3 PUSH2 0x2CE JUMP JUMPDEST PUSH1 0x1 DUP2 ADD SWAP1 POP PUSH2 0x2E7 JUMP JUMPDEST POP POP JUMP JUMPDEST PUSH1 0x1F DUP3 GT ISZERO PUSH2 0x349 JUMPI PUSH2 0x31A DUP2 PUSH2 0x1EB JUMP JUMPDEST PUSH2 0x323 DUP5 PUSH2 0x1FD JUMP JUMPDEST DUP2 ADD PUSH1 0x20 DUP6 LT ISZERO PUSH2 0x332 JUMPI DUP2 SWAP1 POP JUMPDEST PUSH2 0x346 PUSH2 0x33E DUP6 PUSH2 0x1FD JUMP JUMPDEST DUP4 ADD DUP3 PUSH2 0x2E6 JUMP JUMPDEST POP POP JUMPDEST POP POP POP JUMP JUMPDEST PUSH0 DUP3 DUP3 SHR SWAP1 POP SWAP3 SWAP2 POP POP JUMP JUMPDEST PUSH0 PUSH2 0x369 PUSH0 NOT DUP5 PUSH1 0x8 MUL PUSH2 0x34E JUMP JUMPDEST NOT DUP1 DUP4 AND SWAP2 POP POP SWAP3 SWAP2 POP POP JUMP JUMPDEST PUSH0 PUSH2 0x381 DUP4 DUP4 PUSH2 0x35A JUMP JUMPDEST SWAP2 POP DUP3 PUSH1 0x2 MUL DUP3 OR SWAP1 POP SWAP3 SWAP2 POP POP JUMP JUMPDEST PUSH2 0x39A DUP3 PUSH2 0x157 JUMP JUMPDEST PUSH8 0xFFFFFFFFFFFFFFFF DUP2 GT ISZERO PUSH2 0x3B3 JUMPI PUSH2 0x3B2 PUSH2 0x161 JUMP JUMPDEST JUMPDEST PUSH2 0x3BD DUP3 SLOAD PUSH2 0x1BB JUMP JUMPDEST PUSH2 0x3C8 DUP3 DUP3 DUP6 PUSH2 0x308 JUMP JUMPDEST PUSH0 PUSH1 0x20 SWAP1 POP PUSH1 0x1F DUP4 GT PUSH1 0x1 DUP2 EQ PUSH2 0x3F9 JUMPI PUSH0 DUP5 ISZERO PUSH2 0x3E7 JUMPI DUP3 DUP8 ADD MLOAD SWAP1 POP JUMPDEST PUSH2 0x3F1 DUP6 DUP3 PUSH2 0x376 JUMP JUMPDEST DUP7 SSTORE POP PUSH2 0x458 JUMP JUMPDEST PUSH1 0x1F NOT DUP5 AND PUSH2 0x407 DUP7 PUSH2 0x1EB JUMP JUMPDEST PUSH0 JUMPDEST DUP3 DUP2 LT ISZERO PUSH2 0x42E JUMPI DUP5 DUP10 ADD MLOAD DUP3 SSTORE PUSH1 0x1 DUP3 ADD SWAP2 POP PUSH1 0x20 DUP6 ADD SWAP5 POP PUSH1 0x20 DUP2 ADD SWAP1 POP PUSH2 0x409 JUMP JUMPDEST DUP7 DUP4 LT ISZERO PUSH2 0x44B JUMPI DUP5 DUP10 ADD MLOAD PUSH2 0x447 PUSH1 0x1F DUP10 AND DUP3 PUSH2 0x35A JUMP JUMPDEST DUP4 SSTORE POP JUMPDEST PUSH1 0x1 PUSH1 0x2 DUP9 MUL ADD DUP9 SSTORE POP POP POP JUMPDEST POP POP POP POP POP POP JUMP JUMPDEST PUSH0 DUP2 SWAP1 POP DUP2 PUSH0 MSTORE PUSH1 0x20 PUSH0 KECCAK256 SWAP1 POP SWAP2 SWAP1 POP JUMP JUMPDEST PUSH1 0x1F DUP3 GT ISZERO PUSH2 0x4B3 JUMPI PUSH2 0x484 DUP2 PUSH2 0x460 JUMP JUMPDEST PUSH2 0x48D DUP5 PUSH2 0x1FD JUMP JUMPDEST DUP2 ADD PUSH1 0x20 DUP6 LT ISZERO PUSH2 0x49C JUMPI DUP2 SWAP1 POP JUMPDEST PUSH2 0x4B0 PUSH2 0x4A8 DUP6 PUSH2 0x1FD JUMP JUMPDEST DUP4 ADD DUP3 PUSH2 0x2E6 JUMP JUMPDEST POP POP JUMPDEST POP POP POP JUMP JUMPDEST PUSH2 0x4C1 DUP3 PUSH2 0x157 JUMP JUMPDEST PUSH8 0xFFFFFFFFFFFFFFFF DUP2 GT ISZERO PUSH2 0x4DA JUMPI PUSH2 0x4D9 PUSH2 0x161 JUMP JUMPDEST JUMPDEST PUSH2 0x4E4 DUP3 SLOAD PUSH2 0x1BB JUMP JUMPDEST PUSH2 0x4EF DUP3 DUP3 DUP6 PUSH2 0x472 JUMP JUMPDEST PUSH0 PUSH1 0x20 SWAP1 POP PUSH1 0x1F DUP4 GT PUSH1 0x1 DUP2 EQ PUSH2 0x520 JUMPI PUSH0 DUP5 ISZERO PUSH2 0x50E JUMPI DUP3 DUP8 ADD MLOAD SWAP1 POP JUMPDEST PUSH2 0x518 DUP6 DUP3 PUSH2 0x376 JUMP JUMPDEST DUP7 SSTORE POP PUSH2 0x57F JUMP JUMPDEST PUSH1 0x1F NOT DUP5 AND PUSH2 0x52E DUP7 PUSH2 0x460 JUMP JUMPDEST PUSH0 JUMPDEST DUP3 DUP2 LT ISZERO PUSH2 0x555 JUMPI DUP5 DUP10 ADD MLOAD DUP3 SSTORE PUSH1 0x1 DUP3 ADD SWAP2 POP PUSH1 0x20 DUP6 ADD SWAP5 POP PUSH1 0x20 DUP2 ADD SWAP1 POP PUSH2 0x530 JUMP JUMPDEST DUP7 DUP4 LT ISZERO PUSH2 0x572 JUMPI DUP5 DUP10 ADD MLOAD PUSH2 0x56E PUSH1 0x1F DUP10 AND DUP3 PUSH2 0x35A JUMP JUMPDEST DUP4 SSTORE POP JUMPDEST PUSH1 0x1 PUSH1 0x2 DUP9 MUL ADD DUP9 SSTORE POP POP POP JUMPDEST POP POP POP POP POP POP JUMP JUMPDEST PUSH2 0x8D4 DUP1 PUSH2 0x594 PUSH0 CODECOPY PUSH0 RETURN INVALID PUSH1 0x80 PUSH1 0x40 MSTORE CALLVALUE DUP1 ISZERO PUSH2 0xF JUMPI PUSH0 DUP1 REVERT JUMPDEST POP PUSH1 0x4 CALLDATASIZE LT PUSH2 0x60 JUMPI PUSH0 CALLDATALOAD PUSH1 0xE0 SHR DUP1 PUSH4 0x7CA2442 EQ PUSH2 0x64 JUMPI DUP1 PUSH4 0xC8AE01F EQ PUSH2 0x94 JUMPI DUP1 PUSH4 0x4EE5C2EE EQ PUSH2 0xB2 JUMPI DUP1 PUSH4 0x5ABE622B EQ PUSH2 0xCE JUMPI DUP1 PUSH4 0xDE4B3A73 EQ PUSH2 0xEC JUMPI DUP1 PUSH4 0xE96B824A EQ PUSH2 0x10A JUMPI JUMPDEST PUSH0 DUP1 REVERT JUMPDEST PUSH2 0x7E PUSH1 0x4 DUP1 CALLDATASIZE SUB DUP2 ADD SWAP1 PUSH2 0x79 SWAP2 SWAP1 PUSH2 0x2C9 JUMP JUMPDEST PUSH2 0x128 JUMP JUMPDEST PUSH1 0x40 MLOAD PUSH2 0x8B SWAP2 SWAP1 PUSH2 0x303 JUMP JUMPDEST PUSH1 0x40 MLOAD DUP1 SWAP2 SUB SWAP1 RETURN JUMPDEST PUSH2 0x9C PUSH2 0x148 JUMP JUMPDEST PUSH1 0x40 MLOAD PUSH2 0xA9 SWAP2 SWAP1 PUSH2 0x303 JUMP JUMPDEST PUSH1 0x40 MLOAD DUP1 SWAP2 SUB SWAP1 RETURN JUMPDEST PUSH2 0xCC PUSH1 0x4 DUP1 CALLDATASIZE SUB DUP2 ADD SWAP1 PUSH2 0xC7 SWAP2 SWAP1 PUSH2 0x458 JUMP JUMPDEST PUSH2 0x14E JUMP JUMPDEST STOP JUMPDEST PUSH2 0xD6 PUSH2 0x168 JUMP JUMPDEST PUSH1 0x40 MLOAD PUSH2 0xE3 SWAP2 SWAP1 PUSH2 0x4CA JUMP JUMPDEST PUSH1 0x40 MLOAD DUP1 SWAP2 SUB SWAP1 RETURN JUMPDEST PUSH2 0xF4 PUSH2 0x16E JUMP JUMPDEST PUSH1 0x40 MLOAD PUSH2 0x101 SWAP2 SWAP1 PUSH2 0x543 JUMP JUMPDEST PUSH1 0x40 MLOAD DUP1 SWAP2 SUB SWAP1 RETURN JUMPDEST PUSH2 0x112 PUSH2 0x1F9 JUMP JUMPDEST PUSH1 0x40 MLOAD PUSH2 0x11F SWAP2 SWAP1 PUSH2 0x5B5 JUMP JUMPDEST PUSH1 0x40 MLOAD DUP1 SWAP2 SUB SWAP1 RETURN JUMPDEST PUSH1 0x4 DUP2 DUP2 SLOAD DUP2 LT PUSH2 0x137 JUMPI PUSH0 DUP1 REVERT JUMPDEST SWAP1 PUSH0 MSTORE PUSH1 0x20 PUSH0 KECCAK256 ADD PUSH0 SWAP2 POP SWAP1 POP SLOAD DUP2 JUMP JUMPDEST PUSH1 0x1 SLOAD DUP2 JUMP JUMPDEST DUP2 PUSH0 SWAP1 DUP2 PUSH2 0x15C SWAP2 SWAP1 PUSH2 0x7CF JUMP JUMPDEST POP DUP1 PUSH1 0x1 DUP2 SWAP1 SSTORE POP POP POP JUMP JUMPDEST PUSH1 0x2 SLOAD DUP2 JUMP JUMPDEST PUSH0 DUP1 SLOAD PUSH2 0x17A SWAP1 PUSH2 0x602 JUMP JUMPDEST DUP1 PUSH1 0x1F ADD PUSH1 0x20 DUP1 SWAP2 DIV MUL PUSH1 0x20 ADD PUSH1 0x40 MLOAD SWAP1 DUP2 ADD PUSH1 0x40 MSTORE DUP1 SWAP3 SWAP2 SWAP1 DUP2 DUP2 MSTORE PUSH1 0x20 ADD DUP3 DUP1 SLOAD PUSH2 0x1A6 SWAP1 PUSH2 0x602 JUMP JUMPDEST DUP1 ISZERO PUSH2 0x1F1 JUMPI DUP1 PUSH1 0x1F LT PUSH2 0x1C8 JUMPI PUSH2 0x100 DUP1 DUP4 SLOAD DIV MUL DUP4 MSTORE SWAP2 PUSH1 0x20 ADD SWAP2 PUSH2 0x1F1 JUMP JUMPDEST DUP3 ADD SWAP2 SWAP1 PUSH0 MSTORE PUSH1 0x20 PUSH0 KECCAK256 SWAP1 JUMPDEST DUP2 SLOAD DUP2 MSTORE SWAP1 PUSH1 0x1 ADD SWAP1 PUSH1 0x20 ADD DUP1 DUP4 GT PUSH2 0x1D4 JUMPI DUP3 SWAP1 SUB PUSH1 0x1F AND DUP3 ADD SWAP2 JUMPDEST POP POP POP POP POP DUP2 JUMP JUMPDEST PUSH1 0x3 DUP1 SLOAD PUSH2 0x206 SWAP1 PUSH2 0x602 JUMP JUMPDEST DUP1 PUSH1 0x1F ADD PUSH1 0x20 DUP1 SWAP2 DIV MUL PUSH1 0x20 ADD PUSH1 0x40 MLOAD SWAP1 DUP2 ADD PUSH1 0x40 MSTORE DUP1 SWAP3 SWAP2 SWAP1 DUP2 DUP2 MSTORE PUSH1 0x20 ADD DUP3 DUP1 SLOAD PUSH2 0x232 SWAP1 PUSH2 0x602 JUMP JUMPDEST DUP1 ISZERO PUSH2 0x27D JUMPI DUP1 PUSH1 0x1F LT PUSH2 0x254 JUMPI PUSH2 0x100 DUP1 DUP4 SLOAD DIV MUL DUP4 MSTORE SWAP2 PUSH1 0x20 ADD SWAP2 PUSH2 0x27D JUMP JUMPDEST DUP3 ADD SWAP2 SWAP1 PUSH0 MSTORE PUSH1 0x20 PUSH0 KECCAK256 SWAP1 JUMPDEST DUP2 SLOAD DUP2 MSTORE SWAP1 PUSH1 0x1 ADD SWAP1 PUSH1 0x20 ADD DUP1 DUP4 GT PUSH2 0x260 JUMPI DUP3 SWAP1 SUB PUSH1 0x1F AND DUP3 ADD SWAP2 JUMPDEST POP POP POP POP POP DUP2 JUMP JUMPDEST PUSH0 PUSH1 0x40 MLOAD SWAP1 POP SWAP1 JUMP JUMPDEST PUSH0 DUP1 REVERT JUMPDEST PUSH0 DUP1 REVERT JUMPDEST PUSH0 DUP2 SWAP1 POP SWAP2 SWAP1 POP JUMP JUMPDEST PUSH2 0x2A8 DUP2 PUSH2 0x296 JUMP JUMPDEST DUP2 EQ PUSH2 0x2B2 JUMPI PUSH0 DUP1 REVERT JUMPDEST POP JUMP JUMPDEST PUSH0 DUP2 CALLDATALOAD SWAP1 POP PUSH2 0x2C3 DUP2 PUSH2 0x29F JUMP JUMPDEST SWAP3 SWAP2 POP POP JUMP JUMPDEST PUSH0 PUSH1 0x20 DUP3 DUP5 SUB SLT ISZERO PUSH2 0x2DE JUMPI PUSH2 0x2DD PUSH2 0x28E JUMP JUMPDEST JUMPDEST PUSH0 PUSH2 0x2EB DUP5 DUP3 DUP6 ADD PUSH2 0x2B5 JUMP JUMPDEST SWAP2 POP POP SWAP3 SWAP2 POP POP JUMP JUMPDEST PUSH2 0x2FD DUP2 PUSH2 0x296 JUMP JUMPDEST DUP3 MSTORE POP POP JUMP JUMPDEST PUSH0 PUSH1 0x20 DUP3 ADD SWAP1 POP PUSH2 0x316 PUSH0 DUP4 ADD DUP5 PUSH2 0x2F4 JUMP JUMPDEST SWAP3 SWAP2 POP POP JUMP JUMPDEST PUSH0 DUP1 REVERT JUMPDEST PUSH0 DUP1 REVERT JUMPDEST PUSH0 PUSH1 0x1F NOT PUSH1 0x1F DUP4 ADD AND SWAP1 POP SWAP2 SWAP1 POP JUMP JUMPDEST PUSH32 0x4E487B7100000000000000000000000000000000000000000000000000000000 PUSH0 MSTORE PUSH1 0x41 PUSH1 0x4 MSTORE PUSH1 0x24 PUSH0 REVERT JUMPDEST PUSH2 0x36A DUP3 PUSH2 0x324 JUMP JUMPDEST DUP2 ADD DUP2 DUP2 LT PUSH8 0xFFFFFFFFFFFFFFFF DUP3 GT OR ISZERO PUSH2 0x389 JUMPI PUSH2 0x388 PUSH2 0x334 JUMP JUMPDEST JUMPDEST DUP1 PUSH1 0x40 MSTORE POP POP POP JUMP JUMPDEST PUSH0 PUSH2 0x39B PUSH2 0x285 JUMP JUMPDEST SWAP1 POP PUSH2 0x3A7 DUP3 DUP3 PUSH2 0x361 JUMP JUMPDEST SWAP2 SWAP1 POP JUMP JUMPDEST PUSH0 PUSH8 0xFFFFFFFFFFFFFFFF DUP3 GT ISZERO PUSH2 0x3C6 JUMPI PUSH2 0x3C5 PUSH2 0x334 JUMP JUMPDEST JUMPDEST PUSH2 0x3CF DUP3 PUSH2 0x324 JUMP JUMPDEST SWAP1 POP PUSH1 0x20 DUP2 ADD SWAP1 POP SWAP2 SWAP1 POP JUMP JUMPDEST DUP3 DUP2 DUP4 CALLDATACOPY PUSH0 DUP4 DUP4 ADD MSTORE POP POP POP JUMP JUMPDEST PUSH0 PUSH2 0x3FC PUSH2 0x3F7 DUP5 PUSH2 0x3AC JUMP JUMPDEST PUSH2 0x392 JUMP JUMPDEST SWAP1 POP DUP3 DUP2 MSTORE PUSH1 0x20 DUP2 ADD DUP5 DUP5 DUP5 ADD GT ISZERO PUSH2 0x418 JUMPI PUSH2 0x417 PUSH2 0x320 JUMP JUMPDEST JUMPDEST PUSH2 0x423 DUP5 DUP3 DUP6 PUSH2 0x3DC JUMP JUMPDEST POP SWAP4 SWAP3 POP POP POP JUMP JUMPDEST PUSH0 DUP3 PUSH1 0x1F DUP4 ADD SLT PUSH2 0x43F JUMPI PUSH2 0x43E PUSH2 0x31C JUMP JUMPDEST JUMPDEST DUP2 CALLDATALOAD PUSH2 0x44F DUP5 DUP3 PUSH1 0x20 DUP7 ADD PUSH2 0x3EA JUMP JUMPDEST SWAP2 POP POP SWAP3 SWAP2 POP POP JUMP JUMPDEST PUSH0 DUP1 PUSH1 0x40 DUP4 DUP6 SUB SLT ISZERO PUSH2 0x46E JUMPI PUSH2 0x46D PUSH2 0x28E JUMP JUMPDEST JUMPDEST PUSH0 DUP4 ADD CALLDATALOAD PUSH8 0xFFFFFFFFFFFFFFFF DUP2 GT ISZERO PUSH2 0x48B JUMPI PUSH2 0x48A PUSH2 0x292 JUMP JUMPDEST JUMPDEST PUSH2 0x497 DUP6 DUP3 DUP7 ADD PUSH2 0x42B JUMP JUMPDEST SWAP3 POP POP PUSH1 0x20 PUSH2 0x4A8 DUP6 DUP3 DUP7 ADD PUSH2 0x2B5 JUMP JUMPDEST SWAP2 POP POP SWAP3 POP SWAP3 SWAP1 POP JUMP JUMPDEST PUSH0 DUP2 SWAP1 POP SWAP2 SWAP1 POP JUMP JUMPDEST PUSH2 0x4C4 DUP2 PUSH2 0x4B2 JUMP JUMPDEST DUP3 MSTORE POP POP JUMP JUMPDEST PUSH0 PUSH1 0x20 DUP3 ADD SWAP1 POP PUSH2 0x4DD PUSH0 DUP4 ADD DUP5 PUSH2 0x4BB JUMP JUMPDEST SWAP3 SWAP2 POP POP JUMP JUMPDEST PUSH0 DUP2 MLOAD SWAP1 POP SWAP2 SWAP1 POP JUMP JUMPDEST PUSH0 DUP3 DUP3 MSTORE PUSH1 0x20 DUP3 ADD SWAP1 POP SWAP3 SWAP2 POP POP JUMP JUMPDEST DUP3 DUP2 DUP4 MCOPY PUSH0 DUP4 DUP4 ADD MSTORE POP POP POP JUMP JUMPDEST PUSH0 PUSH2 0x515 DUP3 PUSH2 0x4E3 JUMP JUMPDEST PUSH2 0x51F DUP2 DUP6 PUSH2 0x4ED JUMP JUMPDEST SWAP4 POP PUSH2 0x52F DUP2 DUP6 PUSH1 0x20 DUP7 ADD PUSH2 0x4FD JUMP JUMPDEST PUSH2 0x538 DUP2 PUSH2 0x324 JUMP JUMPDEST DUP5 ADD SWAP2 POP POP SWAP3 SWAP2 POP POP JUMP JUMPDEST PUSH0 PUSH1 0x20 DUP3 ADD SWAP1 POP DUP2 DUP2 SUB PUSH0 DUP4 ADD MSTORE PUSH2 0x55B DUP2 DUP5 PUSH2 0x50B JUMP JUMPDEST SWAP1 POP SWAP3 SWAP2 POP POP JUMP JUMPDEST PUSH0 DUP2 MLOAD SWAP1 POP SWAP2 SWAP1 POP JUMP JUMPDEST PUSH0 DUP3 DUP3 MSTORE PUSH1 0x20 DUP3 ADD SWAP1 POP SWAP3 SWAP2 POP POP JUMP JUMPDEST PUSH0 PUSH2 0x587 DUP3 PUSH2 0x563 JUMP JUMPDEST PUSH2 0x591 DUP2 DUP6 PUSH2 0x56D JUMP JUMPDEST SWAP4 POP PUSH2 0x5A1 DUP2 DUP6 PUSH1 0x20 DUP7 ADD PUSH2 0x4FD JUMP JUMPDEST PUSH2 0x5AA DUP2 PUSH2 0x324 JUMP JUMPDEST DUP5 ADD SWAP2 POP POP SWAP3 SWAP2 POP POP JUMP JUMPDEST PUSH0 PUSH1 0x20 DUP3 ADD SWAP1 POP DUP2 DUP2 SUB PUSH0 DUP4 ADD MSTORE PUSH2 0x5CD DUP2 DUP5 PUSH2 0x57D JUMP JUMPDEST SWAP1 POP SWAP3 SWAP2 POP POP JUMP JUMPDEST PUSH32 0x4E487B7100000000000000000000000000000000000000000000000000000000 PUSH0 MSTORE PUSH1 0x22 PUSH1 0x4 MSTORE PUSH1 0x24 PUSH0 REVERT JUMPDEST PUSH0 PUSH1 0x2 DUP3 DIV SWAP1 POP PUSH1 0x1 DUP3 AND DUP1 PUSH2 0x619 JUMPI PUSH1 0x7F DUP3 AND SWAP2 POP JUMPDEST PUSH1 0x20 DUP3 LT DUP2 SUB PUSH2 0x62C JUMPI PUSH2 0x62B PUSH2 0x5D5 JUMP JUMPDEST JUMPDEST POP SWAP2 SWAP1 POP JUMP JUMPDEST PUSH0 DUP2 SWAP1 POP DUP2 PUSH0 MSTORE PUSH1 0x20 PUSH0 KECCAK256 SWAP1 POP SWAP2 SWAP1 POP JUMP JUMPDEST PUSH0 PUSH1 0x20 PUSH1 0x1F DUP4 ADD DIV SWAP1 POP SWAP2 SWAP1 POP JUMP JUMPDEST PUSH0 DUP3 DUP3 SHL SWAP1 POP SWAP3 SWAP2 POP POP JUMP JUMPDEST PUSH0 PUSH1 0x8 DUP4 MUL PUSH2 0x68E PUSH32 0xFFFFFFFFFFFFFFFFFFFFFFFFFFFFFFFFFFFFFFFFFFFFFFFFFFFFFFFFFFFFFFFF DUP3 PUSH2 0x653 JUMP JUMPDEST PUSH2 0x698 DUP7 DUP4 PUSH2 0x653 JUMP JUMPDEST SWAP6 POP DUP1 NOT DUP5 AND SWAP4 POP DUP1 DUP7 AND DUP5 OR SWAP3 POP POP POP SWAP4 SWAP3 POP POP POP JUMP JUMPDEST PUSH0 DUP2 SWAP1 POP SWAP2 SWAP1 POP JUMP JUMPDEST PUSH0 PUSH2 0x6D3 PUSH2 0x6CE PUSH2 0x6C9 DUP5 PUSH2 0x296 JUMP JUMPDEST PUSH2 0x6B0 JUMP JUMPDEST PUSH2 0x296 JUMP JUMPDEST SWAP1 POP SWAP2 SWAP1 POP JUMP JUMPDEST PUSH0 DUP2 SWAP1 POP SWAP2 SWAP1 POP JUMP JUMPDEST PUSH2 0x6EC DUP4 PUSH2 0x6B9 JUMP JUMPDEST PUSH2 0x700 PUSH2 0x6F8 DUP3 PUSH2 0x6DA JUMP JUMPDEST DUP5 DUP5 SLOAD PUSH2 0x65F JUMP JUMPDEST DUP3 SSTORE POP POP POP POP JUMP JUMPDEST PUSH0 SWAP1 JUMP JUMPDEST PUSH2 0x714 PUSH2 0x708 JUMP JUMPDEST PUSH2 0x71F DUP2 DUP5 DUP5 PUSH2 0x6E3 JUMP JUMPDEST POP POP POP JUMP JUMPDEST JUMPDEST DUP2 DUP2 LT ISZERO PUSH2 0x742 JUMPI PUSH2 0x737 PUSH0 DUP3 PUSH2 0x70C JUMP JUMPDEST PUSH1 0x1 DUP2 ADD SWAP1 POP PUSH2 0x725 JUMP JUMPDEST POP POP JUMP JUMPDEST PUSH1 0x1F DUP3 GT ISZERO PUSH2 0x787 JUMPI PUSH2 0x758 DUP2 PUSH2 0x632 JUMP JUMPDEST PUSH2 0x761 DUP5 PUSH2 0x644 JUMP JUMPDEST DUP2 ADD PUSH1 0x20 DUP6 LT ISZERO PUSH2 0x770 JUMPI DUP2 SWAP1 POP JUMPDEST PUSH2 0x784 PUSH2 0x77C DUP6 PUSH2 0x644 JUMP JUMPDEST DUP4 ADD DUP3 PUSH2 0x724 JUMP JUMPDEST POP POP JUMPDEST POP POP POP JUMP JUMPDEST PUSH0 DUP3 DUP3 SHR SWAP1 POP SWAP3 SWAP2 POP POP JUMP JUMPDEST PUSH0 PUSH2 0x7A7 PUSH0 NOT DUP5 PUSH1 0x8 MUL PUSH2 0x78C JUMP JUMPDEST NOT DUP1 DUP4 AND SWAP2 POP POP SWAP3 SWAP2 POP POP JUMP JUMPDEST PUSH0 PUSH2 0x7BF DUP4 DUP4 PUSH2 0x798 JUMP JUMPDEST SWAP2 POP DUP3 PUSH1 0x2 MUL DUP3 OR SWAP1 POP SWAP3 SWAP2 POP POP JUMP JUMPDEST PUSH2 0x7D8 DUP3 PUSH2 0x4E3 JUMP JUMPDEST PUSH8 0xFFFFFFFFFFFFFFFF DUP2 GT ISZERO PUSH2 0x7F1 JUMPI PUSH2 0x7F0 PUSH2 0x334 JUMP JUMPDEST JUMPDEST PUSH2 0x7FB DUP3 SLOAD PUSH2 0x602 JUMP JUMPDEST PUSH2 0x806 DUP3 DUP3 DUP6 PUSH2 0x746 JUMP JUMPDEST PUSH0 PUSH1 0x20 SWAP1 POP PUSH1 0x1F DUP4 GT PUSH1 0x1 DUP2 EQ PUSH2 0x837 JUMPI PUSH0 DUP5 ISZERO PUSH2 0x825 JUMPI DUP3 DUP8 ADD MLOAD SWAP1 POP JUMPDEST PUSH2 0x82F DUP6 DUP3 PUSH2 0x7B4 JUMP JUMPDEST DUP7 SSTORE POP PUSH2 0x896 JUMP JUMPDEST PUSH1 0x1F NOT DUP5 AND PUSH2 0x845 DUP7 PUSH2 0x632 JUMP JUMPDEST PUSH0 JUMPDEST DUP3 DUP2 LT ISZERO PUSH2 0x86C JUMPI DUP5 DUP10 ADD MLOAD DUP3 SSTORE PUSH1 0x1 DUP3 ADD SWAP2 POP PUSH1 0x20 DUP6 ADD SWAP5 POP PUSH1 0x20 DUP2 ADD SWAP1 POP PUSH2 0x847 JUMP JUMPDEST DUP7 DUP4 LT ISZERO PUSH2 0x889 JUMPI DUP5 DUP10 ADD MLOAD PUSH2 0x885 PUSH1 0x1F DUP10 AND DUP3 PUSH2 0x798 JUMP JUMPDEST DUP4 SSTORE POP JUMPDEST PUSH1 0x1 PUSH1 0x2 DUP9 MUL ADD DUP9 SSTORE POP POP POP JUMPDEST POP POP POP POP POP POP JUMP INVALID LOG2 PUSH5 0x6970667358 0x22 SLT KECCAK256 MUL GASPRICE 0xAD SWAP3 PUSH31 0xA9360DD3A2F0F0B7B5F24D665D41FA55D84B4B4631415F8A6063A364736F6C PUSH4 0x43000819 STOP CALLER "
		},
		"gasEstimates": {
			"creation": {
				"codeDepositCost": "452000",
				"executionCost": "infinite",
				"totalCost": "infinite"
			},
			"external": {
				"defaultBytes()": "infinite",
				"defaultInt()": "2469",
				"defaultNum()": "2425",
				"defaultText()": "infinite",
				"myNumber(uint256)": "infinite",
				"update(string,uint256)": "infinite"
			}
		},
		"methodIdentifiers": {
			"defaultBytes()": "e96b824a",
			"defaultInt()": "5abe622b",
			"defaultNum()": "0c8ae01f",
			"defaultText()": "de4b3a73",
			"myNumber(uint256)": "07ca2442",
			"update(string,uint256)": "4ee5c2ee"
		}
	},
	"abi": [
		{
			"inputs": [],
			"name": "defaultBytes",
			"outputs": [
				{
					"internalType": "bytes",
					"name": "",
					"type": "bytes"
				}
			],
			"stateMutability": "view",
			"type": "function"
		},
		{
			"inputs": [],
			"name": "defaultInt",
			"outputs": [
				{
					"internalType": "int256",
					"name": "",
					"type": "int256"
				}
			],
			"stateMutability": "view",
			"type": "function"
		},
		{
			"inputs": [],
			"name": "defaultNum",
			"outputs": [
				{
					"internalType": "uint256",
					"name": "",
					"type": "uint256"
				}
			],
			"stateMutability": "view",
			"type": "function"
		},
		{
			"inputs": [],
			"name": "defaultText",
			"outputs": [
				{
					"internalType": "string",
					"name": "",
					"type": "string"
				}
			],
			"stateMutability": "view",
			"type": "function"
		},
		{
			"inputs": [
				{
					"internalType": "uint256",
					"name": "",
					"type": "uint256"
				}
			],
			"name": "myNumber",
			"outputs": [
				{
					"internalType": "uint256",
					"name": "",
					"type": "uint256"
				}
			],
			"stateMutability": "view",
			"type": "function"
		},
		{
			"inputs": [
				{
					"internalType": "string",
					"name": "_text",
					"type": "string"
				},
				{
					"internalType": "uint256",
					"name": "_no",
					"type": "uint256"
				}
			],
			"name": "update",
			"outputs": [],
			"stateMutability": "nonpayable",
			"type": "function"
		}
	]
}